{
  "_format": "hh-sol-artifact-1",
  "contractName": "ETHTransfer",
  "sourceName": "contracts/ETHTransfer.sol",
  "abi": [
    {
      "anonymous": false,
      "inputs": [
        {
          "indexed": true,
          "internalType": "address",
          "name": "sender",
          "type": "address"
        },
        {
          "indexed": true,
          "internalType": "address",
          "name": "recipient",
          "type": "address"
        },
        {
          "indexed": false,
          "internalType": "uint256",
          "name": "amount",
          "type": "uint256"
        }
      ],
      "name": "TransferSent",
      "type": "event"
    },
    {
      "inputs": [
        {
          "internalType": "address payable",
          "name": "_recipient",
          "type": "address"
        }
      ],
      "name": "sendETH",
      "outputs": [],
      "stateMutability": "payable",
      "type": "function"
    }
  ],
  "bytecode": "0x608060405234801561001057600080fd5b506102a8806100206000396000f3fe60806040526004361061001e5760003560e01c806321b1e5f814610023575b600080fd5b61003d60048036038101906100389190610194565b61003f565b005b60003411610082576040517f08c379a00000000000000000000000000000000000000000000000000000000081526004016100799061021e565b60405180910390fd5b8073ffffffffffffffffffffffffffffffffffffffff166108fc349081150290604051600060405180830381858888f193505050501580156100c8573d6000803e3d6000fd5b508073ffffffffffffffffffffffffffffffffffffffff163373ffffffffffffffffffffffffffffffffffffffff167ffda3a3e0e1479b43cb1c701f7576187f4c4ad80768d627387e00184302f7d88e346040516101269190610257565b60405180910390a350565b600080fd5b600073ffffffffffffffffffffffffffffffffffffffff82169050919050565b600061016182610136565b9050919050565b61017181610156565b811461017c57600080fd5b50565b60008135905061018e81610168565b92915050565b6000602082840312156101aa576101a9610131565b5b60006101b88482850161017f565b91505092915050565b600082825260208201905092915050565b7f4a756d6c616820455448206861727573206c6562696820646172692030000000600082015250565b6000610208601d836101c1565b9150610213826101d2565b602082019050919050565b60006020820190508181036000830152610237816101fb565b9050919050565b6000819050919050565b6102518161023e565b82525050565b600060208201905061026c6000830184610248565b9291505056fea26469706673582212205d72e2e7bce21dbe27c4584852b164c93d6fa2346069d4d67ded54e9669e2e1664736f6c63430008110033",
  "linkReferences": {},
  "deployedLinkReferences": {}
}